:020000040800F2
:1000000020060020D90100083D160008351600081A
:1000100039160008F1020008251800080000000049
:10002000000000000000000000000000451600086D
:1000300025030008000000004116000849160008CA
:10004000F3010008F3010008F3010008F3010008C0
:10005000F3010008F3010008F3010008F3010008B0
:10006000F3010008F3010008F3010008F3010008A0
:10007000F5020008F301000801030008F30100087D
:10008000F3010008F3010008F3010008F301000880
:10009000F3010008F3010008F3010008F301000870
:1000A000F3010008F3010008F3010008F301000860
:1000B000F3010008F3010008F3010008F301000850
:1000C000F3010008F3010008F3010008F301000840
:1000D000F30100080D180008F301000819180008C2
:1000E000F3010008F3010008F3010008F301000820
:1000F000F3010008F3010008F3010008F301000810
:10010000F3010008F3010008F3010008F3010008FF
:10011000F3010008F3010008F3010008F3010008EF
:10012000F3010008F30100080D030008F3010008C3
:10013000F30100080000000000000000F3010008C7
:10014000F3010008F3010008F3010008F3010008BF
:10015000F3010008F301000819030008F301000887
:10016000F3010008F3010008F3010008F30100089F
:10017000F3010008F3010008F3010008000000008B
:1001800000000000F3010008000000000000000073
:10019000F30100080000000000000000F301000867
:1001A000000000000000000000000000F301000853
:1001B000F3010008F3010008F3010008F30100084F
:1001C000F3010008DFF80CD000F07AF8004800478F
:1001D000F918000820060020064880470648004716
:1001E000FEE7FEE7FEE7FEE7FEE7FEE7FEE7FEE7E7
:1001F000FEE7FEE74D160008C50100082DE9F05F97
:100200000546002092469B46884606468146402485
:100210001BE0284641464746224600F041F8534637
:100220005A46C01A914110D311461846224600F092
:1002300028F82D1A67EB01084F46224601200021BD
:1002400000F01FF817EB00094E41201EA4F1010435
:10025000DFDC484631462A464346BDE8F09FD2B22D
:1002600001E000F8012B491EFBD270470022F6E79F
:1002700010B513460A4604461946FFF7F0FF20461C
:1002800010BD202A04DB203A00FA02F1002070475A
:100290009140C2F1200320FA03F3194390407047C4
:1002A000202A04DB203A21FA02F00021704721FACB
:1002B00002F3D040C2F12002914008431946704732
:1002C0001CB509480090094801900546009C06E0CD
:1002D000E06840F0010394E8070098471034AC420E
:1002E000F6D3FFF773FF0000A41D0008C41D00082B
:1002F000FEE7000040F21810C2F2000000F02CB837
:1003000040F27810C2F2000000F026B840F2580027
:10031000C2F2000000F020B840F2B800C2F20000C3
:1003200000F01AB870470000EFF3108072B600BFFB
:10033000FEE7000090F83510022909D1052180F868
:1003400035100068016821F001010160002070474C
:100350008021416501207047F0B581B000210091F6
:1003600040F20801C2F200010B68D0E9166148F2C0
:10037000B51537680822C1F64E358A403A42A3FBCC
:1003800005350CD003681C68640708D51C6824F088
:1003900004041C60B260426D42F001024265012219
:1003A0008A403A4208D003685B691B0604D5B260F4
:1003B000426D42F00202426504228A403A4208D06D
:1003C00003681B689B0704D5B260426D42F00402CB
:1003D000426510228A403A4219D001680B681B0717
:1003E00015D5B2600B680A685B0309D4D20509D43D
:1003F0000A6822F008020A60016C29B907E000BF10
:10040000110341D4016C11B1044688472046C26DE6
:10041000202101FA02F33B4243D001680F68FF0636
:100420003FD5B36090F835700B68052F1CD123F0D1
:1004300016030B604B6923F080034B61036C0BB90F
:10044000836C1BB10B6823F008030B603F219140C4
:10045000B160002180F83410012180F83510016D61
:10046000002954D158E000BF0A685B0310D4D205BC
:1004700012D40A6822F010020A60002180F83410B9
:10048000012180F8351007E0816C0029BCD1BEE75E
:10049000110301D4416C00E0C16B11B104468847DF
:1004A0002046416DC1B3416DC9072ED0052180F8AA
:1004B00035100168AA0A0B6823F001030B60009B4A
:1004C0000133934200931AD80B68DB0717D0009BC7
:1004D00001339342009312D80B68DB070FD0009BC7
:1004E0000133934200930AD80B68DB0707D0009BC7
:1004F00001339342009302D80B68DB07DFD1002160
:1005000080F83410012180F83510C16C21B101B0A0
:10051000BDE8F040084700BF01B0F0BD2DE9F04153
:10052000044600F00BFAECB10546002084F83400D4
:10053000022084F835002068016821F00101016083
:1005400021680868C00711D000F0F8F9401B0528A1
:10055000F6D9032520230320636584F83550BDE8D0
:10056000F08100BF0120BDE8F08100BF086848F2BB
:100570003F02CFF21002D4E9013500EA020C04F187
:100580000C0898E8C10143EA0C032B431843D4E953
:10059000072E304338431043626A40EA0E00042AB3
:1005A00040EA08031CD1206BD4E90A2E40EA0E0071
:1005B000184308604869BEF1000F20F0030040EACC
:1005C000020040F0040C11D0B8F5005F36D0B8F14D
:1005D000000F45D1022A46D0012A3BD032B942E071
:1005E0000B60486920F0070040EA020C01F0F800B7
:1005F0004AF6AB221038CAF6AA22A0FB02231A0937
:1006000041F69443C1F814C0C0F600039A5C40F26E
:10061000FF335F284FF03F0021EA030100FA02F0A8
:1006200088BF0431C4E91612886000230125002028
:10063000636584F83550BDE8F08100BF032AD5D842
:10064000012540230120DFE802F0030E030500BF6F
:1006500082E700BFAEF1C070B0FA80F0400904E05C
:10066000032A04D3C2D1CEF300600028BED00125F6
:1006700040230120636584F83550BDE8F081000017
:1006800090F834C0BCF1010F04BF0220704770B570
:100690004FF0010C80F834C0D0F858E090F835C025
:1006A000BCF1010F38D14FF0020C80F835C04FF08B
:1006B000000CC0F854C0D0F800C08468056CC06D50
:1006C000DCF80060402C26F48026CCF80060CCF8E2
:1006D00004300B4604BF13460A463F2101FA00F0DE
:1006E000CCF80830CCF80C20CEF80800DCF800007C
:1006F00040F01600CCF800002DB1DCF8000040F00E
:100700000800CCF80000DCF8000040F00100CCF854
:100710000000002070BD00BF002180F834100220CE
:1007200070BD0000B0B5044600F008F9054640F27F
:100730000000C2F200000078611C18BF044400BF32
:1007400000F0FCF8401BA042FAD3B0BD2DE9F04FF9
:1007500086B08B4600F1200100F13E4741F60005CE
:10076000019107F1FF77C4F2020507214FEAB7268E
:100770000290A84208BF0621062E38BF4FEAB721D3
:100780004FF0010C00274FF000084FF000090091D6
:10079000CDF80CB00AE000BF08F1020809F1010928
:1007A000B8F1200F07F1040700F0B880DBF8005023
:1007B0000CFA09FE15EA0E00EED0DBF804A0049056
:1007C000BAF1120F00F2A2800CFA0AF515F0061F1A
:1007D00000F09C80029803218568DBF80C6001FA28
:1007E00008F4A54306FA08F63543856046686FEAC3
:1007F000040C4FEA1A144FEA490226EA0E0604FADC
:1008000009F4964626434660C668DBF8084006EAC7
:100810000C0604FA0EF426434AF01004122CC660AB
:1008200013D16FF0030101EA5906019907F01C0288
:100830008C590F23DBF81050934024EA030305FA88
:1008400002F21A438A51DBF804A002680AF003039B
:1008500002EA0C0203FA0EF111430160DDF80CB05C
:10086000049C5FEACA024FF0010C95D5002043F6C4
:1008700044020590C4F20202116843F6004541F4B7
:10088000804111601168C4F2010501F480410591B5
:10089000059929F003014FF6084E2944CFF6FF7E53
:1008A00007F00C030F2051F80E2000FA03F6009811
:1008B000B24300FA03F31A4341F80E202968DBF82B
:1008C000042041EA0403D60358BF21EA04032B6045
:1008D0006968960341EA040358BF21EA04036B6088
:1008E000A968D60241EA040343F60C4658BF21EA40
:1008F0000403AB60C4F201063168920241EA0403CA
:1009000058BF21EA0403336046E700BF032000FA22
:1009100008F502986FEA050CC64675E706B0BDE813
:10092000F08F00000069084018BF012070470000E8
:10093000002A08BF090481617047000040F21820B6
:10094000C2F200000068704740F2000040F2182137
:10095000C2F20000C2F2000100780A681044086088
:100960007047000080B543F60040C4F20200016801
:1009700041F400710160016841F480610160016827
:1009800041F480710160032000F086F8002000F03F
:1009900005F800F027F8002080BD000070B540F297
:1009A0000006C2F2000640F208013278C2F20001ED
:1009B0004FF47A730968B3FBF2F20446B1FBF2F12B
:1009C000084600F049FB0F2C4FF0010508D838B954
:1009D0004FF0FF3021460022002500F031F874600E
:1009E000284670BD82B0002043F640010190C4F259
:1009F00002014A6842F480424A604A6802F4804236
:100A00000192019A0090086840F0805008600868E0
:100A100000F080500090009802B07047002848BF56
:100A2000704700F01F01012202FA01F11C2202EAC4
:100A3000D0004EF20012CEF200028150704700004A
:100A400010B54EF60C5CCEF2000CDCF80030C3F3AF
:100A5000022E8EF00704042C28BF0424BEF10303E9
:100A60004FF0FF3E0EFA04F438BF0023A143994033
:100A70000EFA03F39A43114300F00F0200F16043B2
:100A80000901043A03F564436244002848BF02F1B7
:100A90000C03197010BD00004EF60C51CEF200018F
:100AA0000A684FF6FF031A4060F30A2242F08060A2
:100AB00040F0FD7008607047002804BF01207047B7
:100AC0002DE9F04143F60808C4F202080446D8F8BC
:100AD000F8030D4600F00F00884207D288F8F8535B
:100AE000D8F8F80300F00F00A84277D120688107FA
:100AF00017D5410705D5D8F8001041F4E051C8F8E2
:100B00000010010705D5D8F8001041F46041C8F87D
:100B10000010D8F80010A26821F0F0011143C8F8C5
:100B20000010C00740D1D8F8F80300F00F00A84229
:100B300007D988F8F853D8F8F80300F00F00A84256
:100B40004CD12068410707D5D8F80010E26821F49D
:100B5000E0511143C8F80010000708D5D8F800008C
:100B6000216920F4604040EAC100C8F8000000F0AC
:100B70007DF8D8F8001041F67C42C1F30311C0F6AD
:100B80000002515C40F2080220FA01F140F2040038
:100B9000C2F200000068C2F200021160FFF7FEFE20
:100BA0000020BDE8F08100BF6068811E022907D2E5
:100BB00058F8081C89015CBF0120BDE8F08111E0F4
:100BC000012807D158F8081C89035CBF0120BDE843
:100BD000F08107E058F8081C890703D40120BDE81C
:100BE000F08100BFD8F8001021F003010843C8F8D5
:100BF0000000FFF7A3FE064641F28837D8F8000050
:100C0000616800F00C00B0EB810F8CD0FFF796FE0E
:100C1000801BB842F2D90320BDE8F08140F2080001
:100C200043F60801C2F20000C4F20201006809683C
:100C300041F68C42C1F38221C0F60002515CC840EB
:100C40007047000040F2080043F60801C2F20000BD
:100C5000C4F202010068096841F68C42C1F34231D6
:100C6000C0F60002515CC8407047000010B543F662
:100C70000404C4F202046068C0F3810142F200403F
:100C8000C0F2F400DFE801F04102082647F6400018
:100C9000C0F27D1010BD00BF2068216823684902A2
:100CA00047F64001C0F27D1100F03F02C3F3881007
:100CB0005CBF42F20041C0F2F401A1FB000100233D
:100CC000FFF79CFA21680222C1F3014102EB4101C6
:100CD00019E000BF206821682368490247F64001F7
:100CE000C0F27D1100F03F02C3F388105CBF42F2F6
:100CF0000041C0F2F401A1FB00010023FFF77EFADE
:100D00002168C1F30271B0FBF1F010BD2DE9F04193
:100D100082B00446007843F60006C007C4F202061B
:100D20000AD0B06800F00C00042840F07F803068E2
:100D3000800301D56068A8B32078800722D5B06809
:100D400010F00C0F11D0B06800F00C00082802D190
:100D50007068400209D5B06800F00C000C2840F023
:100D600097807068400200F193803068800702D558
:100D7000E068012816D13068216920F0F80040EAC7
:100D8000C10030602078000710D42078400725D4B7
:100D9000A569002D00F02E81B06800F00C00082835
:100DA00040F09C80012002B0BDE8F081606900281D
:100DB00040F20000C4F2472000F080800121C0F81A
:100DC000801EFFF7BBFD0546706F8007DDD4FFF77F
:100DD000B5FD401B0228F7D9E3E000BF306C5FEAA5
:100DE000C0080AD400200190306C40F0805030647C
:100DF000306C00F080500190019847F20007C4F277
:100E000000073868C00535D4386840F48070386011
:100E1000FFF794FD054600BF3868C0052AD4FFF7E8
:100E20008DFD401B0228F7D9BBE000BFB06800F081
:100E30000C00082803D1706840023FF578AFB06815
:100E400000F00C000C2803D1706840023FF56FAF32
:100E500061683068B1F5803F07D0B1F5A02F40F050
:100E60008B8040F480203060306840F48030306007
:100E70008BE000BFA168306F012905D005294FD153
:100E800040F004003067306F40F00100306750E000
:100E9000E06800285CD00020C4F2472001210160F6
:100EA000FFF74CFD054600BF306880073FF563AF94
:100EB000FFF744FD401B0228F6D972E00021C0F87C
:100EC000801EFFF73BFD0546706F80077FF55DAF25
:100ED000FFF734FD401B0228F6D962E00027C4F278
:100EE000472700203866FFF729FD022D05460BD164
:100EF000306880015AD5FFF721FD401B02284FF0D2
:100F00000300F5D9A5E000BF3068800172D5FFF776
:100F100015FD401B03284FF00300F5D399E000BFF7
:100F200020F001003067306F002920F004003067A6
:100F300064D0FFF703FD054641F28837306F800724
:100F40006ED4FFF7FBFC401BB842F7D929E000BF85
:100F50000020C4F2472000210160FFF7EFFC0546A6
:100F6000306880077FF50EAFFFF7E8FC401B0228D2
:100F70004FF00300F4D96CE020F48030306030682A
:100F8000002920F48020306054D0FFF7D7FC0546BC
:100F9000306880033FF5D0AEFFF7D0FC401B6428DB
:100FA000F6D9032002B0BDE8F08100BF04F11C05B2
:100FB0002FCD246B084340EA8210D9034FF6FF720D
:100FC0009143A1F5803140EA0560084340EA04708E
:100FD000706001203866FFF7B1FC0446306880017C
:100FE00008D4FFF7ABFC001B02284FF00300F5D933
:100FF0002FE000BF002002B0BDE8F081FFF79EFCAB
:10100000054641F2883700BF306F800708D5FFF7EB
:1010100095FC401BB8424FF00300F5D919E000BF22
:10102000B8F1000F3FF5B4AE306C20F08050306462
:10103000AEE600BFFFF782FC054600BF30688003C4
:101040007FF57AAEFFF77AFC401B64284FF003006F
:10105000F4D902B0BDE8F081411E0020B0EB116F61
:101060001CBF012070474EF21002CEF20002516008
:101070004EF62351CEF20001F0230B700721906051
:101080001160704770470000B0B501680A68CC680D
:101090004B6902F02F05202D04F0200512D18DB1EF
:1010A00090F83A20222A40F017818268B2F5805FDA
:1010B0003ED10369826A4968002B61D0C9B222F827
:1010C000011B61E05FEA027C1EBF03F0010E04F425
:1010D000907313EB0E0337D1130617D514F080036A
:1010E00014D090F83920212A40F0F6808368026AF3
:1010F000B3F5805F30D113886FF35F234B600369D2
:10110000002B14BF01320232026229E0520640F184
:10111000E38014F0400208BFB0BDCA6822F040026C
:10112000CA60202180F83910BDE8B04000F080BAD4
:1011300002694968002A826A18BF01F07F01531CC6
:101140008362117021E000BFD30718BF14F48073CD
:1011500036D153073AD440E0531C036212784A60F8
:10116000C28C013A1304C28440F0B680C86820F0F3
:101170008000C860C86840F04000C860B0BD00BFD3
:101180006FF35F2122F8021B8262C18D01390A04CC
:10119000C18540F0A1800168CA6822F02002CA60BF
:1011A000CA6822F48072CA604A6922F001024A6168
:1011B000202180F83A10BDE8B04000F035BA00BFF9
:1011C000C36B43F00103C363530706D5BEF1000FA1
:1011D00003D0C36B43F00203C363930706D5BEF18C
:1011E000000F03D0C36B43F00403C363BCF1000FD3
:1011F00006D55EEA050303D0C36B43F00803C3635F
:10120000C36B002B68D092063BD5D5B390F83A203B
:10121000222A36D18268B2F5805F07D10369826ADB
:1012200049687BB1C9B222F8011B0FE00269496825
:10123000002A826A18BF01F07F01531C836211707B
:1012400005E000BF6FF35F2122F8021B8262C18DAF
:101250004A1EC2850168120413D1CA68044622F0EE
:101260002002CA60CA6822F48072CA604A6922F009
:1012700001024A61202180F83A1000F0D5F9216876
:1012800020464A69C36B02F0400203F00803D218FB
:1012900024D0CA6822F49072CA604A6922F001021E
:1012A0004A61202280F83A204A6952061CD54A69D0
:1012B00022F040024A61416BB1B141F26962C0F66D
:1012C0000002044608460A65FFF734F820B1606B57
:1012D000016DBDE8B0400847B0BD00BF0446FFF750
:1012E000D1FE0020E063B0BDBDE8B040FFF7CABE4C
:1012F000002804BF0120704710B5044690F839005B
:1013000028B9002084F83800204600F021F8242075
:1013100084F839002068C16821F40051C16020467A
:1013200000F0F6F92068016921F4904101614169FA
:1013300021F02A014161C16841F40051C1600020DF
:101340002021E06384F8391084F83A1010BD0000C1
:101350002DE9F04F87B00446006844F60001C4F25E
:10136000000100268842CDE90566CDE903660296B4
:101370006ED041F20001C4F20101884240F0F080D9
:1013800043F630000196C4F20200416946F2280893
:1013900041F0100141614169C4F2020801F01001FD
:1013A000019101990196016841F001010160006815
:1013B00002A900F00100019001984FF4C060029072
:1013C0000220CDE9030603200590072006900020A7
:1013D000C4F20200FFF7BAF940F2580508F583603D
:1013E000C2F200054FF000674FF4806A4FF4807935
:1013F000C5E900072846C5E90266C5E904A6C5E9AE
:101400000669C5E90866FFF789F8002818BFFEF7E6
:101410008BFF6563AC6340F2B80508F59260C2F2D9
:1014200000054021C5E9000705F1080080E84204F5
:101430002846C5E90566C5E907966E62FFF76EF8AE
:1014400000284FF0250618BFFEF76EFF7EE000BFB4
:1014500043F630000196C4F20200016940F2000830
:1014600041F4802101610169C4F2020801F4802184
:10147000019101990196016802AD41F004010160FA
:1014800001684FF0020901F00401019101990196F0
:1014900001684FF0030A41F002010160006807276C
:1014A00000F00200019001982020029008F50060F1
:1014B0002946CDE90396CDF814A00697FFF746F923
:1014C0004FF4806B069746F2280708F5806029469E
:1014D000CDE902B9CDE9046AC4F20207FFF736F993
:1014E00040F21815C2F200054FF0006A4FF48079FF
:1014F0002846C5E9007AC5E90266C5E904B6C5E92A
:101500000669C5E90866FFF709F8002818BFFEF765
:101510000BFF6563AC6340F2781507F13000C2F24F
:1015200000054021C5E9000A05F10800002280E815
:1015300006082846C5E90522C5E907926A62FEF752
:10154000EDFF4FF0270608B1FEF7EEFE3046002112
:1015500000222563AC63FFF773FA3046FFF75EFAAB
:1015600007B0BDE8F08F000090F83A30202B1CBF88
:1015700002207047B0B582B096460A4600294FF067
:10158000010118BFBEF1000F04D102B0BDE8B040A8
:101590000846704790F83810012905D1022102B0A1
:1015A000BDE8B04008467047012180F8381000219E
:1015B00022238262A0F82CE0C16380F83A30D0F890
:1015C00034C041F2D16441F20975C0F60004C0F69E
:1015D00000050368CCE90F4541F27564C0F60004CC
:1015E000CCE91341191D044660467346FFF748F8DD
:1015F0000021019120680268019242680192019ADB
:1016000084F83810C26842F48072C260426942F0C5
:1016100001024261426942F04002426102B0BDE80B
:10162000B040084670470000704700007047000057
:1016300070470000FEE70000FEE70000FEE7000044
:101640007047000070470000FFF77EB94EF68850E3
:10165000CEF20000016841F4700101604FF00061BA
:1016600040F8801C70470000806B0021C185C18458
:10167000FFF708BD806B01684A6990F83930212B6B
:101680000BD112F0800208D00022C284CA6822F076
:10169000C002CA60202280F839204A6990F83A30A6
:1016A000222B0FD112F040020CD00022C285CA6852
:1016B00022F49072CA604A6922F001024A61202134
:1016C00080F83A10C16B41F01001C163FFF7DABC3A
:1016D0000168806B0968C90548BFFFF7A5BF0021F5
:1016E000C1850168CA6822F48072CA604A6922F022
:1016F00001024A614A6922F040024A61202180F8D1
:101700003A10FFF791BF0000806BFFF78FBF00001A
:1017100070B50446006804F108030ECB056919434F
:1017200025F440552A430261626949F20C65114370
:10173000E269C3684FF69C76AB4319431143C1601D
:101740004169A36921F440711943416141F20041AB
:10175000C0F6FF76B2F5004F40F48060C4F201019C
:1017600004D1884208D1FFF76DFA07E0884229D1F9
:10177000FFF768FA28E000BFFFF750FA6368192105
:10178000A0FB01015A00DB0FFEF738FD48F21F51A4
:10179000C5F2EB11A0FB01235A0906F1805302FBAD
:1017A0000300322303EBC000A0FB01014FF4F870EB
:1017B00000EA111000EB0210C1F342110844216845
:1017C000886070BDFFF72AFA63681921A0FB010148
:1017D0009A009B0FFEF712FD48F21F51C5F2EB1164
:1017E000A0FB01235A0902FB0600322303EB001081
:1017F000A0FB0101F02000EA511000EB0210C1F340
:10180000431108442168886070BD000040F2180050
:10181000C2F20000FFF738BC40F2D810C2F200005C
:10182000FFF732BCFEE70000B0B541F69C41C0F6C0
:10183000000101EBC002937951F830405D000120B6
:101840002168A84021EA00002060918820460022FB
:10185000FFF76EF84FF4FA70FEF764FF032021687B
:10186000A84081434FF4FA702160BDE8B040FEF714
:1018700059BF000041F69C41C0F6000101EBC002D7
:10188000937951F830005B004FF0010C01680CFABD
:1018900003F39943016091880022FFF749B80000E3
:1018A000B0B541F69C41C0F6000101EBC00251F811
:1018B0003040958820462946FFF734F8012804BFB8
:1018C0000120B0BD20462946FFF72CF8002818BF9C
:1018D0000320B0BD41F69C41C0F6000101EBC002FF
:1018E000927951F83000520003210368914023EAB5
:1018F000010101607047000094B043F6300547F2E3
:101900000007C4F20205C4F20007FFF72BF807AC8A
:1019100020463421FEF7AAFC00260696CDE904668F
:10192000CDE9026601962869012140F080502861C6
:10193000286900F08050019001980196386861F3A1
:101940008F303860386800F44040019001980220E0
:10195000079010200B9020460A910D96FFF7D6F9BC
:1019600020B1EFF3108072B6FEE700BF0F20CDE983
:10197000020602A80021CDE904660696FFF79CF84E
:1019800020B1EFF3108072B6FEE700BF00240B9485
:10199000CDE90944CDE907440294286807F5CC391C
:1019A00040F080002860286841F2DF7100F080007C
:1019B0000290029802942868002240F004002860F7
:1019C000286841F2DF7800F0040002900298029447
:1019D000286840F001002860286800F001000290AB
:1019E00002980294286840F002002860286800F0FD
:1019F0000200029002984846FEF79AFF07F5C83A9F
:101A0000504641F6F2110022FEF792FF07F5CA3662
:101A100030464FF27F310022FEF78AFFCDF81C805E
:101A20000DF11C084FF0010B48464146CDE908B4C2
:101A30000A94FEF78BFE41F6F210CDE9070B5046F3
:101A40004146CDE90944FEF781FE4FF27F30CDE9F2
:101A5000070B30464146CDE90944FEF777FE07946F
:101A60002868002140F4001028602868002200F453
:101A7000001007900798079428684FF00C0840F46E
:101A800080002860286800F48000079007980C20E8
:101A9000FEF7D6FF0C20FEF7C1FF0E20002100222A
:101AA000FEF7CEFF0E20FEF7B9FF3A2000210022FC
:101AB000FEF7C6FF3A20FEF7B1FF462000210022C4
:101AC000FEF7BEFF4620FEF7A9FF40F2D81044F60D
:101AD0000001C2F20000C4F200014FF41656C0E942
:101AE0000016C0E90244C0E90448C0E90644FFF713
:101AF000FFFB28B1EFF3108072B600BFFEE700BF16
:101B000040F21005C2F2000507F52041284640F8D2
:101B1000081FC0E90164C0E90344C0E90584C46149
:101B2000FFF7E6FB20B1EFF3108072B6FEE700BFCF
:101B30006C1C05F1080021460122FFF715FD40F25B
:101B4000D810C2F2000021460122FFF70DFD69788E
:101B500031B900BFFEE700BFFFF7BCFE002169708E
:101B6000084600294FF00001FAD0A870FFF798FE50
:101B70000146E870A878C9B251B100BF0129EBD184
:101B800000F032F86978A878814207D012E000BFEF
:101B9000FFF74AFE6978A87881420BD12878811C2A
:101BA00013282970DAD0E978A878C9B20029E5D1DC
:101BB000EEE700BFFFF78EFEE87828B1012806D1D6
:101BC000687800F037F802E06878FFF753FE68782D
:101BD000A9780A1AA2F10A03DBB2EC2B2A71BDD84C
:101BE000084440086871B7E7B0B541F69C41C0F6BB
:101BF000000101EBC002937951F830405D000120F3
:101C00002168A84021EA0000206091882046012236
:101C1000FEF78EFE4FF4FA70FEF784FD0320216874
:101C2000A84081434FF4FA702160BDE8B040FEF750
:101C300079BD000041F69C41C0F6000101EBC002F5
:101C4000937951F830005B004FF0010C01680CFAF9
:101C500003F39943016091880122FEF769BE02E017
:101C600008C8121F08C1002AFAD170477047002027
:101C700001E001C1121F002AFBD1704700000000E3
:101C8000000000000102030406070809000000002C
:101C900001020304000610160006101600000000E2
:101CA000000000000008024000040A000004024096
:101CB0000800030000040240200005000004024068
:101CC000100004000000024000010800000802406B
:101CD00000100C00000802408000070000040240D1
:101CE00040000600000002408000070000000240A3
:101CF00040000600000002402000050000040240F1
:101D0000000209000004024000010800000802402F
:101D1000000209000008024000010800000802401B
:101D2000400006000000024000100C0000000240CD
:101D300000080B000004024000100C0000040240E8
:101D400004000200000402400200010000040240FE
:101D500000800F000004024000400E00000402401A
:101D600000200D00000802401000040000000240A6
:101D700002000100000002401000040000040240C4
:101D800001000000000802400200010000080240BB
:101D900001000000000802400800030000080240A3
:101DA00004000200C81D0008000000201000000010
:101DB0005E1C0008D81D000810000020100600005E
:101DC0006E1C000800000000010000001000000070
:081DD0000024F40000000000F3
:04000005080001C529
:00000001FF
